{
  "_format": "hh-sol-artifact-1",
  "contractName": "Statera",
  "sourceName": "contracts/polygon-statera.sol",
  "abi": [
    {
      "inputs": [
        {
          "internalType": "string",
          "name": "name_",
          "type": "string"
        },
        {
          "internalType": "string",
          "name": "symbol_",
          "type": "string"
        },
        {
          "internalType": "address",
          "name": "childChainManager",
          "type": "address"
        }
      ],
      "stateMutability": "nonpayable",
      "type": "constructor"
    },
    {
      "anonymous": false,
      "inputs": [
        {
          "indexed": true,
          "internalType": "address",
          "name": "owner",
          "type": "address"
        },
        {
          "indexed": true,
          "internalType": "address",
          "name": "spender",
          "type": "address"
        },
        {
          "indexed": false,
          "internalType": "uint256",
          "name": "value",
          "type": "uint256"
        }
      ],
      "name": "Approval",
      "type": "event"
    },
    {
      "anonymous": false,
      "inputs": [
        {
          "indexed": true,
          "internalType": "bytes32",
          "name": "role",
          "type": "bytes32"
        },
        {
          "indexed": true,
          "internalType": "bytes32",
          "name": "previousAdminRole",
          "type": "bytes32"
        },
        {
          "indexed": true,
          "internalType": "bytes32",
          "name": "newAdminRole",
          "type": "bytes32"
        }
      ],
      "name": "RoleAdminChanged",
      "type": "event"
    },
    {
      "anonymous": false,
      "inputs": [
        {
          "indexed": true,
          "internalType": "bytes32",
          "name": "role",
          "type": "bytes32"
        },
        {
          "indexed": true,
          "internalType": "address",
          "name": "account",
          "type": "address"
        },
        {
          "indexed": true,
          "internalType": "address",
          "name": "sender",
          "type": "address"
        }
      ],
      "name": "RoleGranted",
      "type": "event"
    },
    {
      "anonymous": false,
      "inputs": [
        {
          "indexed": true,
          "internalType": "bytes32",
          "name": "role",
          "type": "bytes32"
        },
        {
          "indexed": true,
          "internalType": "address",
          "name": "account",
          "type": "address"
        },
        {
          "indexed": true,
          "internalType": "address",
          "name": "sender",
          "type": "address"
        }
      ],
      "name": "RoleRevoked",
      "type": "event"
    },
    {
      "anonymous": false,
      "inputs": [
        {
          "indexed": true,
          "internalType": "address",
          "name": "from",
          "type": "address"
        },
        {
          "indexed": true,
          "internalType": "address",
          "name": "to",
          "type": "address"
        },
        {
          "indexed": false,
          "internalType": "uint256",
          "name": "value",
          "type": "uint256"
        }
      ],
      "name": "Transfer",
      "type": "event"
    },
    {
      "inputs": [],
      "name": "DEFAULT_ADMIN_ROLE",
      "outputs": [
        {
          "internalType": "bytes32",
          "name": "",
          "type": "bytes32"
        }
      ],
      "stateMutability": "view",
      "type": "function"
    },
    {
      "inputs": [],
      "name": "DEPOSITOR_ROLE",
      "outputs": [
        {
          "internalType": "bytes32",
          "name": "",
          "type": "bytes32"
        }
      ],
      "stateMutability": "view",
      "type": "function"
    },
    {
      "inputs": [
        {
          "internalType": "address",
          "name": "owner",
          "type": "address"
        },
        {
          "internalType": "address",
          "name": "spender",
          "type": "address"
        }
      ],
      "name": "allowance",
      "outputs": [
        {
          "internalType": "uint256",
          "name": "",
          "type": "uint256"
        }
      ],
      "stateMutability": "view",
      "type": "function"
    },
    {
      "inputs": [
        {
          "internalType": "address",
          "name": "spender",
          "type": "address"
        },
        {
          "internalType": "uint256",
          "name": "amount",
          "type": "uint256"
        }
      ],
      "name": "approve",
      "outputs": [
        {
          "internalType": "bool",
          "name": "",
          "type": "bool"
        }
      ],
      "stateMutability": "nonpayable",
      "type": "function"
    },
    {
      "inputs": [
        {
          "internalType": "address",
          "name": "account",
          "type": "address"
        }
      ],
      "name": "balanceOf",
      "outputs": [
        {
          "internalType": "uint256",
          "name": "",
          "type": "uint256"
        }
      ],
      "stateMutability": "view",
      "type": "function"
    },
    {
      "inputs": [
        {
          "internalType": "uint256",
          "name": "value",
          "type": "uint256"
        }
      ],
      "name": "cut",
      "outputs": [
        {
          "internalType": "uint256",
          "name": "",
          "type": "uint256"
        }
      ],
      "stateMutability": "nonpayable",
      "type": "function"
    },
    {
      "inputs": [],
      "name": "decimals",
      "outputs": [
        {
          "internalType": "uint8",
          "name": "",
          "type": "uint8"
        }
      ],
      "stateMutability": "view",
      "type": "function"
    },
    {
      "inputs": [
        {
          "internalType": "address",
          "name": "spender",
          "type": "address"
        },
        {
          "internalType": "uint256",
          "name": "subtractedValue",
          "type": "uint256"
        }
      ],
      "name": "decreaseAllowance",
      "outputs": [
        {
          "internalType": "bool",
          "name": "",
          "type": "bool"
        }
      ],
      "stateMutability": "nonpayable",
      "type": "function"
    },
    {
      "inputs": [
        {
          "internalType": "address",
          "name": "user",
          "type": "address"
        },
        {
          "internalType": "bytes",
          "name": "depositData",
          "type": "bytes"
        }
      ],
      "name": "deposit",
      "outputs": [],
      "stateMutability": "nonpayable",
      "type": "function"
    },
    {
      "inputs": [
        {
          "internalType": "bytes32",
          "name": "role",
          "type": "bytes32"
        }
      ],
      "name": "getRoleAdmin",
      "outputs": [
        {
          "internalType": "bytes32",
          "name": "",
          "type": "bytes32"
        }
      ],
      "stateMutability": "view",
      "type": "function"
    },
    {
      "inputs": [
        {
          "internalType": "bytes32",
          "name": "role",
          "type": "bytes32"
        },
        {
          "internalType": "address",
          "name": "account",
          "type": "address"
        }
      ],
      "name": "grantRole",
      "outputs": [],
      "stateMutability": "nonpayable",
      "type": "function"
    },
    {
      "inputs": [
        {
          "internalType": "bytes32",
          "name": "role",
          "type": "bytes32"
        },
        {
          "internalType": "address",
          "name": "account",
          "type": "address"
        }
      ],
      "name": "hasRole",
      "outputs": [
        {
          "internalType": "bool",
          "name": "",
          "type": "bool"
        }
      ],
      "stateMutability": "view",
      "type": "function"
    },
    {
      "inputs": [
        {
          "internalType": "address",
          "name": "spender",
          "type": "address"
        },
        {
          "internalType": "uint256",
          "name": "addedValue",
          "type": "uint256"
        }
      ],
      "name": "increaseAllowance",
      "outputs": [
        {
          "internalType": "bool",
          "name": "",
          "type": "bool"
        }
      ],
      "stateMutability": "nonpayable",
      "type": "function"
    },
    {
      "inputs": [],
      "name": "name",
      "outputs": [
        {
          "internalType": "string",
          "name": "",
          "type": "string"
        }
      ],
      "stateMutability": "view",
      "type": "function"
    },
    {
      "inputs": [
        {
          "internalType": "bytes32",
          "name": "role",
          "type": "bytes32"
        },
        {
          "internalType": "address",
          "name": "account",
          "type": "address"
        }
      ],
      "name": "renounceRole",
      "outputs": [],
      "stateMutability": "nonpayable",
      "type": "function"
    },
    {
      "inputs": [
        {
          "internalType": "bytes32",
          "name": "role",
          "type": "bytes32"
        },
        {
          "internalType": "address",
          "name": "account",
          "type": "address"
        }
      ],
      "name": "revokeRole",
      "outputs": [],
      "stateMutability": "nonpayable",
      "type": "function"
    },
    {
      "inputs": [
        {
          "internalType": "bytes4",
          "name": "interfaceId",
          "type": "bytes4"
        }
      ],
      "name": "supportsInterface",
      "outputs": [
        {
          "internalType": "bool",
          "name": "",
          "type": "bool"
        }
      ],
      "stateMutability": "view",
      "type": "function"
    },
    {
      "inputs": [],
      "name": "symbol",
      "outputs": [
        {
          "internalType": "string",
          "name": "",
          "type": "string"
        }
      ],
      "stateMutability": "view",
      "type": "function"
    },
    {
      "inputs": [],
      "name": "totalSupply",
      "outputs": [
        {
          "internalType": "uint256",
          "name": "",
          "type": "uint256"
        }
      ],
      "stateMutability": "view",
      "type": "function"
    },
    {
      "inputs": [
        {
          "internalType": "address",
          "name": "recipient",
          "type": "address"
        },
        {
          "internalType": "uint256",
          "name": "amount",
          "type": "uint256"
        }
      ],
      "name": "transfer",
      "outputs": [
        {
          "internalType": "bool",
          "name": "",
          "type": "bool"
        }
      ],
      "stateMutability": "nonpayable",
      "type": "function"
    },
    {
      "inputs": [
        {
          "internalType": "address",
          "name": "sender",
          "type": "address"
        },
        {
          "internalType": "address",
          "name": "recipient",
          "type": "address"
        },
        {
          "internalType": "uint256",
          "name": "amount",
          "type": "uint256"
        }
      ],
      "name": "transferFrom",
      "outputs": [
        {
          "internalType": "bool",
          "name": "",
          "type": "bool"
        }
      ],
      "stateMutability": "nonpayable",
      "type": "function"
    },
    {
      "inputs": [
        {
          "internalType": "uint256",
          "name": "amount",
          "type": "uint256"
        }
      ],
      "name": "withdraw",
      "outputs": [],
      "stateMutability": "nonpayable",
      "type": "function"
    }
  ],
  "bytecode": "0x60806040523480156200001157600080fd5b506040516200302e3803806200302e833981810160405281019062000037919062000403565b8282816003908051906020019062000051929190620002ca565b5080600490805190602001906200006a929190620002ca565b505050620000b36040518060400160405280600781526020017f53746174657261000000000000000000000000000000000000000000000000008152506200011260201b60201c565b620000d76000801b620000cb6200014f60201b60201c565b6200015760201b60201c565b620001097f8f4f2da22e8ac8f11e15f9fc141cddbb5deea8800186560abb6e68c5496619a9826200015760201b60201c565b505050620006bf565b8060405160200162000125919062000504565b604051602081830303815290604052600690805190602001906200014b929190620002ca565b5050565b600033905090565b6200016982826200016d60201b60201c565b5050565b6200017f82826200025f60201b60201c565b6200025b5760016005600084815260200190815260200160002060000160008373ffffffffffffffffffffffffffffffffffffffff1673ffffffffffffffffffffffffffffffffffffffff16815260200190815260200160002060006101000a81548160ff021916908315150217905550620002006200014f60201b60201c565b73ffffffffffffffffffffffffffffffffffffffff168173ffffffffffffffffffffffffffffffffffffffff16837f2f8788117e7eff1d82e926ec794901d17c78024a50270940304540a733656f0d60405160405180910390a45b5050565b60006005600084815260200190815260200160002060000160008373ffffffffffffffffffffffffffffffffffffffff1673ffffffffffffffffffffffffffffffffffffffff16815260200190815260200160002060009054906101000a900460ff16905092915050565b828054620002d89062000611565b90600052602060002090601f016020900481019282620002fc576000855562000348565b82601f106200031757805160ff191683800117855562000348565b8280016001018555821562000348579182015b82811115620003475782518255916020019190600101906200032a565b5b5090506200035791906200035b565b5090565b5b80821115620003765760008160009055506001016200035c565b5090565b6000620003916200038b846200055e565b6200052a565b905082815260208101848484011115620003aa57600080fd5b620003b7848285620005db565b509392505050565b600081519050620003d081620006a5565b92915050565b600082601f830112620003e857600080fd5b8151620003fa8482602086016200037a565b91505092915050565b6000806000606084860312156200041957600080fd5b600084015167ffffffffffffffff8111156200043457600080fd5b6200044286828701620003d6565b935050602084015167ffffffffffffffff8111156200046057600080fd5b6200046e86828701620003d6565b92505060406200048186828701620003bf565b9150509250925092565b6000620004988262000591565b620004a481856200059c565b9350620004b6818560208601620005db565b80840191505092915050565b6000620004d1601a836200059c565b91507f3a20494e53554646494349454e545f5045524d495353494f4e530000000000006000830152601a82019050919050565b60006200051282846200048b565b91506200051f82620004c2565b915081905092915050565b6000604051905081810181811067ffffffffffffffff8211171562000554576200055362000676565b5b8060405250919050565b600067ffffffffffffffff8211156200057c576200057b62000676565b5b601f19601f8301169050602081019050919050565b600081519050919050565b600081905092915050565b6000620005b482620005bb565b9050919050565b600073ffffffffffffffffffffffffffffffffffffffff82169050919050565b60005b83811015620005fb578082015181840152602081019050620005de565b838111156200060b576000848401525b50505050565b600060028204905060018216806200062a57607f821691505b6020821081141562000641576200064062000647565b5b50919050565b7f4e487b7100000000000000000000000000000000000000000000000000000000600052602260045260246000fd5b7f4e487b7100000000000000000000000000000000000000000000000000000000600052604160045260246000fd5b620006b081620005a7565b8114620006bc57600080fd5b50565b61295f80620006cf6000396000f3fe608060405234801561001057600080fd5b50600436106101425760003560e01c806339509351116100b8578063a3b0b5a31161007c578063a3b0b5a3146103b1578063a457c2d7146103cf578063a9059cbb146103ff578063cf2c52cb1461042f578063d547741f1461044b578063dd62ed3e1461046757610142565b806339509351146102e557806370a082311461031557806391d148541461034557806395d89b4114610375578063a217fddf1461039357610142565b806323b872dd1161010a57806323b872dd14610213578063248a9ca3146102435780632e1a7d4d146102735780632f2ff15d1461028f578063313ce567146102ab57806336568abe146102c957610142565b806301ffc9a71461014757806306fdde031461017757806309260db714610195578063095ea7b3146101c557806318160ddd146101f5575b600080fd5b610161600480360381019061015c9190611d46565b610497565b60405161016e919061238e565b60405180910390f35b61017f610511565b60405161018c91906123c4565b60405180910390f35b6101af60048036038101906101aa9190611d6f565b6105a3565b6040516101bc9190612568565b60405180910390f35b6101df60048036038101906101da9190611ca5565b6105d9565b6040516101ec919061238e565b60405180910390f35b6101fd6105f7565b60405161020a9190612568565b60405180910390f35b61022d60048036038101906102289190611bfe565b610601565b60405161023a919061238e565b60405180910390f35b61025d60048036038101906102589190611ce1565b6106f9565b60405161026a91906123a9565b60405180910390f35b61028d60048036038101906102889190611d6f565b610719565b005b6102a960048036038101906102a49190611d0a565b61072d565b005b6102b3610756565b6040516102c09190612583565b60405180910390f35b6102e360048036038101906102de9190611d0a565b61075f565b005b6102ff60048036038101906102fa9190611ca5565b6107e2565b60405161030c919061238e565b60405180910390f35b61032f600480360381019061032a9190611b99565b61088e565b60405161033c9190612568565b60405180910390f35b61035f600480360381019061035a9190611d0a565b6108d6565b60405161036c919061238e565b60405180910390f35b61037d610941565b60405161038a91906123c4565b60405180910390f35b61039b6109d3565b6040516103a891906123a9565b60405180910390f35b6103b96109da565b6040516103c691906123a9565b60405180910390f35b6103e960048036038101906103e49190611ca5565b6109fe565b6040516103f6919061238e565b60405180910390f35b61041960048036038101906104149190611ca5565b610ae9565b604051610426919061238e565b60405180910390f35b61044960048036038101906104449190611c4d565b610b07565b005b61046560048036038101906104609190611d0a565b610ba1565b005b610481600480360381019061047c9190611bc2565b610bca565b60405161048e9190612568565b60405180910390f35b60007f7965db0b000000000000000000000000000000000000000000000000000000007bffffffffffffffffffffffffffffffffffffffffffffffffffffffff1916827bffffffffffffffffffffffffffffffffffffffffffffffffffffffff1916148061050a575061050982610c51565b5b9050919050565b606060038054610520906127d7565b80601f016020809104026020016040519081016040528092919081815260200182805461054c906127d7565b80156105995780601f1061056e57610100808354040283529160200191610599565b820191906000526020600020905b81548152906001019060200180831161057c57829003601f168201915b5050505050905090565b6000806105ce6127106105c0606486610cbb90919063ffffffff16565b610cd190919063ffffffff16565b905080915050919050565b60006105ed6105e6610ce7565b8484610cef565b6001905092915050565b6000600254905090565b600061060e848484610eba565b6000600160008673ffffffffffffffffffffffffffffffffffffffff1673ffffffffffffffffffffffffffffffffffffffff1681526020019081526020016000206000610659610ce7565b73ffffffffffffffffffffffffffffffffffffffff1673ffffffffffffffffffffffffffffffffffffffff168152602001908152602001600020549050828110156106d9576040517f08c379a00000000000000000000000000000000000000000000000000000000081526004016106d090612488565b60405180910390fd5b6106ed856106e5610ce7565b858403610cef565b60019150509392505050565b600060056000838152602001908152602001600020600101549050919050565b61072a610724610ce7565b826111df565b50565b610736826106f9565b61074781610742610ce7565b6113b6565b6107518383611453565b505050565b60006012905090565b610767610ce7565b73ffffffffffffffffffffffffffffffffffffffff168173ffffffffffffffffffffffffffffffffffffffff16146107d4576040517f08c379a00000000000000000000000000000000000000000000000000000000081526004016107cb90612528565b60405180910390fd5b6107de8282611534565b5050565b60006108846107ef610ce7565b8484600160006107fd610ce7565b73ffffffffffffffffffffffffffffffffffffffff1673ffffffffffffffffffffffffffffffffffffffff16815260200190815260200160002060008873ffffffffffffffffffffffffffffffffffffffff1673ffffffffffffffffffffffffffffffffffffffff1681526020019081526020016000205461087f91906125da565b610cef565b6001905092915050565b60008060008373ffffffffffffffffffffffffffffffffffffffff1673ffffffffffffffffffffffffffffffffffffffff168152602001908152602001600020549050919050565b60006005600084815260200190815260200160002060000160008373ffffffffffffffffffffffffffffffffffffffff1673ffffffffffffffffffffffffffffffffffffffff16815260200190815260200160002060009054906101000a900460ff16905092915050565b606060048054610950906127d7565b80601f016020809104026020016040519081016040528092919081815260200182805461097c906127d7565b80156109c95780601f1061099e576101008083540402835291602001916109c9565b820191906000526020600020905b8154815290600101906020018083116109ac57829003601f168201915b5050505050905090565b6000801b81565b7f8f4f2da22e8ac8f11e15f9fc141cddbb5deea8800186560abb6e68c5496619a981565b60008060016000610a0d610ce7565b73ffffffffffffffffffffffffffffffffffffffff1673ffffffffffffffffffffffffffffffffffffffff16815260200190815260200160002060008573ffffffffffffffffffffffffffffffffffffffff1673ffffffffffffffffffffffffffffffffffffffff16815260200190815260200160002054905082811015610aca576040517f08c379a0000000000000000000000000000000000000000000000000000000008152600401610ac190612508565b60405180910390fd5b610ade610ad5610ce7565b85858403610cef565b600191505092915050565b6000610afd610af6610ce7565b8484610eba565b6001905092915050565b7f8f4f2da22e8ac8f11e15f9fc141cddbb5deea8800186560abb6e68c5496619a9610b3981610b34610ce7565b6108d6565b600690610b7c576040517f08c379a0000000000000000000000000000000000000000000000000000000008152600401610b7391906123e6565b60405180910390fd5b5060008383810190610b8e9190611d6f565b9050610b9a8582611616565b5050505050565b610baa826106f9565b610bbb81610bb6610ce7565b6113b6565b610bc58383611534565b505050565b6000600160008473ffffffffffffffffffffffffffffffffffffffff1673ffffffffffffffffffffffffffffffffffffffff16815260200190815260200160002060008373ffffffffffffffffffffffffffffffffffffffff1673ffffffffffffffffffffffffffffffffffffffff16815260200190815260200160002054905092915050565b60007f01ffc9a7000000000000000000000000000000000000000000000000000000007bffffffffffffffffffffffffffffffffffffffffffffffffffffffff1916827bffffffffffffffffffffffffffffffffffffffffffffffffffffffff1916149050919050565b60008183610cc99190612661565b905092915050565b60008183610cdf9190612630565b905092915050565b600033905090565b600073ffffffffffffffffffffffffffffffffffffffff168373ffffffffffffffffffffffffffffffffffffffff161415610d5f576040517f08c379a0000000000000000000000000000000000000000000000000000000008152600401610d56906124e8565b60405180910390fd5b600073ffffffffffffffffffffffffffffffffffffffff168273ffffffffffffffffffffffffffffffffffffffff161415610dcf576040517f08c379a0000000000000000000000000000000000000000000000000000000008152600401610dc690612468565b60405180910390fd5b80600160008573ffffffffffffffffffffffffffffffffffffffff1673ffffffffffffffffffffffffffffffffffffffff16815260200190815260200160002060008473ffffffffffffffffffffffffffffffffffffffff1673ffffffffffffffffffffffffffffffffffffffff168152602001908152602001600020819055508173ffffffffffffffffffffffffffffffffffffffff168373ffffffffffffffffffffffffffffffffffffffff167f8c5be1e5ebec7d5bd14f71427d1e84f3dd0314c0f7b2291e5b200ac8c7c3b92583604051610ead9190612568565b60405180910390a3505050565b600073ffffffffffffffffffffffffffffffffffffffff168373ffffffffffffffffffffffffffffffffffffffff161415610f2a576040517f08c379a0000000000000000000000000000000000000000000000000000000008152600401610f21906124c8565b60405180910390fd5b600073ffffffffffffffffffffffffffffffffffffffff168273ffffffffffffffffffffffffffffffffffffffff161415610f9a576040517f08c379a0000000000000000000000000000000000000000000000000000000008152600401610f9190612428565b60405180910390fd5b610fa5838383611776565b6000610fb0826105a3565b90506000610fc7828461177b90919063ffffffff16565b90506110358360405180606001604052806026815260200161290460269139600760008973ffffffffffffffffffffffffffffffffffffffff1673ffffffffffffffffffffffffffffffffffffffff168152602001908152602001600020546117919092919063ffffffff16565b600760008773ffffffffffffffffffffffffffffffffffffffff1673ffffffffffffffffffffffffffffffffffffffff168152602001908152602001600020819055506110ca81600760008773ffffffffffffffffffffffffffffffffffffffff1673ffffffffffffffffffffffffffffffffffffffff168152602001908152602001600020546117e690919063ffffffff16565b600760008673ffffffffffffffffffffffffffffffffffffffff1673ffffffffffffffffffffffffffffffffffffffff168152602001908152602001600020819055508373ffffffffffffffffffffffffffffffffffffffff168573ffffffffffffffffffffffffffffffffffffffff167fddf252ad1be2c89b69c2b068fc378daa952ba7f163c4a11628f55a4df523b3ef8360405161116a9190612568565b60405180910390a3600073ffffffffffffffffffffffffffffffffffffffff168573ffffffffffffffffffffffffffffffffffffffff167fddf252ad1be2c89b69c2b068fc378daa952ba7f163c4a11628f55a4df523b3ef846040516111d09190612568565b60405180910390a35050505050565b600073ffffffffffffffffffffffffffffffffffffffff168273ffffffffffffffffffffffffffffffffffffffff16141561124f576040517f08c379a0000000000000000000000000000000000000000000000000000000008152600401611246906124a8565b60405180910390fd5b61125b82600083611776565b60008060008473ffffffffffffffffffffffffffffffffffffffff1673ffffffffffffffffffffffffffffffffffffffff168152602001908152602001600020549050818110156112e1576040517f08c379a00000000000000000000000000000000000000000000000000000000081526004016112d890612448565b60405180910390fd5b8181036000808573ffffffffffffffffffffffffffffffffffffffff1673ffffffffffffffffffffffffffffffffffffffff16815260200190815260200160002081905550816002600082825461133891906126bb565b92505081905550600073ffffffffffffffffffffffffffffffffffffffff168373ffffffffffffffffffffffffffffffffffffffff167fddf252ad1be2c89b69c2b068fc378daa952ba7f163c4a11628f55a4df523b3ef8460405161139d9190612568565b60405180910390a36113b1836000846117fc565b505050565b6113c082826108d6565b61144f576113e58173ffffffffffffffffffffffffffffffffffffffff166014611801565b6113f38360001c6020611801565b604051602001611404929190612354565b6040516020818303038152906040526040517f08c379a000000000000000000000000000000000000000000000000000000000815260040161144691906123c4565b60405180910390fd5b5050565b61145d82826108d6565b6115305760016005600084815260200190815260200160002060000160008373ffffffffffffffffffffffffffffffffffffffff1673ffffffffffffffffffffffffffffffffffffffff16815260200190815260200160002060006101000a81548160ff0219169083151502179055506114d5610ce7565b73ffffffffffffffffffffffffffffffffffffffff168173ffffffffffffffffffffffffffffffffffffffff16837f2f8788117e7eff1d82e926ec794901d17c78024a50270940304540a733656f0d60405160405180910390a45b5050565b61153e82826108d6565b156116125760006005600084815260200190815260200160002060000160008373ffffffffffffffffffffffffffffffffffffffff1673ffffffffffffffffffffffffffffffffffffffff16815260200190815260200160002060006101000a81548160ff0219169083151502179055506115b7610ce7565b73ffffffffffffffffffffffffffffffffffffffff168173ffffffffffffffffffffffffffffffffffffffff16837ff6391f5c32d9c69d2a47ea670b442974b53935d1edc7fd64eb21e047a839171b60405160405180910390a45b5050565b600073ffffffffffffffffffffffffffffffffffffffff168273ffffffffffffffffffffffffffffffffffffffff161415611686576040517f08c379a000000000000000000000000000000000000000000000000000000000815260040161167d90612548565b60405180910390fd5b61169260008383611776565b80600260008282546116a491906125da565b92505081905550806000808473ffffffffffffffffffffffffffffffffffffffff1673ffffffffffffffffffffffffffffffffffffffff16815260200190815260200160002060008282546116f991906125da565b925050819055508173ffffffffffffffffffffffffffffffffffffffff16600073ffffffffffffffffffffffffffffffffffffffff167fddf252ad1be2c89b69c2b068fc378daa952ba7f163c4a11628f55a4df523b3ef8360405161175e9190612568565b60405180910390a3611772600083836117fc565b5050565b505050565b6000818361178991906126bb565b905092915050565b60008383111582906117d9576040517f08c379a00000000000000000000000000000000000000000000000000000000081526004016117d091906123c4565b60405180910390fd5b5082840390509392505050565b600081836117f491906125da565b905092915050565b505050565b6060600060028360026118149190612661565b61181e91906125da565b67ffffffffffffffff81111561185d577f4e487b7100000000000000000000000000000000000000000000000000000000600052604160045260246000fd5b6040519080825280601f01601f19166020018201604052801561188f5781602001600182028036833780820191505090505b5090507f3000000000000000000000000000000000000000000000000000000000000000816000815181106118ed577f4e487b7100000000000000000000000000000000000000000000000000000000600052603260045260246000fd5b60200101907effffffffffffffffffffffffffffffffffffffffffffffffffffffffffffff1916908160001a9053507f780000000000000000000000000000000000000000000000000000000000000081600181518110611977577f4e487b7100000000000000000000000000000000000000000000000000000000600052603260045260246000fd5b60200101907effffffffffffffffffffffffffffffffffffffffffffffffffffffffffffff1916908160001a905350600060018460026119b79190612661565b6119c191906125da565b90505b6001811115611aad577f3031323334353637383961626364656600000000000000000000000000000000600f861660108110611a29577f4e487b7100000000000000000000000000000000000000000000000000000000600052603260045260246000fd5b1a60f81b828281518110611a66577f4e487b7100000000000000000000000000000000000000000000000000000000600052603260045260246000fd5b60200101907effffffffffffffffffffffffffffffffffffffffffffffffffffffffffffff1916908160001a905350600485901c945080611aa6906127ad565b90506119c4565b5060008414611af1576040517f08c379a0000000000000000000000000000000000000000000000000000000008152600401611ae890612408565b60405180910390fd5b8091505092915050565b600081359050611b0a816128a7565b92915050565b600081359050611b1f816128be565b92915050565b600081359050611b34816128d5565b92915050565b60008083601f840112611b4c57600080fd5b8235905067ffffffffffffffff811115611b6557600080fd5b602083019150836001820283011115611b7d57600080fd5b9250929050565b600081359050611b93816128ec565b92915050565b600060208284031215611bab57600080fd5b6000611bb984828501611afb565b91505092915050565b60008060408385031215611bd557600080fd5b6000611be385828601611afb565b9250506020611bf485828601611afb565b9150509250929050565b600080600060608486031215611c1357600080fd5b6000611c2186828701611afb565b9350506020611c3286828701611afb565b9250506040611c4386828701611b84565b9150509250925092565b600080600060408486031215611c6257600080fd5b6000611c7086828701611afb565b935050602084013567ffffffffffffffff811115611c8d57600080fd5b611c9986828701611b3a565b92509250509250925092565b60008060408385031215611cb857600080fd5b6000611cc685828601611afb565b9250506020611cd785828601611b84565b9150509250929050565b600060208284031215611cf357600080fd5b6000611d0184828501611b10565b91505092915050565b60008060408385031215611d1d57600080fd5b6000611d2b85828601611b10565b9250506020611d3c85828601611afb565b9150509250929050565b600060208284031215611d5857600080fd5b6000611d6684828501611b25565b91505092915050565b600060208284031215611d8157600080fd5b6000611d8f84828501611b84565b91505092915050565b611da181612701565b82525050565b611db08161270d565b82525050565b6000611dc1826125b3565b611dcb81856125be565b9350611ddb81856020860161277a565b611de481612896565b840191505092915050565b6000611dfa826125b3565b611e0481856125cf565b9350611e1481856020860161277a565b80840191505092915050565b60008154611e2d816127d7565b611e3781866125be565b94506001821660008114611e525760018114611e6457611e97565b60ff1983168652602086019350611e97565b611e6d8561259e565b60005b83811015611e8f57815481890152600182019150602081019050611e70565b808801955050505b50505092915050565b6000611ead6020836125be565b91507f537472696e67733a20686578206c656e67746820696e73756666696369656e746000830152602082019050919050565b6000611eed6023836125be565b91507f45524332303a207472616e7366657220746f20746865207a65726f206164647260008301527f65737300000000000000000000000000000000000000000000000000000000006020830152604082019050919050565b6000611f536022836125be565b91507f45524332303a206275726e20616d6f756e7420657863656564732062616c616e60008301527f63650000000000000000000000000000000000000000000000000000000000006020830152604082019050919050565b6000611fb96022836125be565b91507f45524332303a20617070726f766520746f20746865207a65726f20616464726560008301527f73730000000000000000000000000000000000000000000000000000000000006020830152604082019050919050565b600061201f6028836125be565b91507f45524332303a207472616e7366657220616d6f756e742065786365656473206160008301527f6c6c6f77616e63650000000000000000000000000000000000000000000000006020830152604082019050919050565b60006120856021836125be565b91507f45524332303a206275726e2066726f6d20746865207a65726f2061646472657360008301527f73000000000000000000000000000000000000000000000000000000000000006020830152604082019050919050565b60006120eb6025836125be565b91507f45524332303a207472616e736665722066726f6d20746865207a65726f20616460008301527f64726573730000000000000000000000000000000000000000000000000000006020830152604082019050919050565b60006121516024836125be565b91507f45524332303a20617070726f76652066726f6d20746865207a65726f2061646460008301527f72657373000000000000000000000000000000000000000000000000000000006020830152604082019050919050565b60006121b76017836125cf565b91507f416363657373436f6e74726f6c3a206163636f756e74200000000000000000006000830152601782019050919050565b60006121f76025836125be565b91507f45524332303a2064656372656173656420616c6c6f77616e63652062656c6f7760008301527f207a65726f0000000000000000000000000000000000000000000000000000006020830152604082019050919050565b600061225d6011836125cf565b91507f206973206d697373696e6720726f6c65200000000000000000000000000000006000830152601182019050919050565b600061229d602f836125be565b91507f416363657373436f6e74726f6c3a2063616e206f6e6c792072656e6f756e636560008301527f20726f6c657320666f722073656c6600000000000000000000000000000000006020830152604082019050919050565b6000612303601f836125be565b91507f45524332303a206d696e7420746f20746865207a65726f2061646472657373006000830152602082019050919050565b61233f81612763565b82525050565b61234e8161276d565b82525050565b600061235f826121aa565b915061236b8285611def565b915061237682612250565b91506123828284611def565b91508190509392505050565b60006020820190506123a36000830184611d98565b92915050565b60006020820190506123be6000830184611da7565b92915050565b600060208201905081810360008301526123de8184611db6565b905092915050565b600060208201905081810360008301526124008184611e20565b905092915050565b6000602082019050818103600083015261242181611ea0565b9050919050565b6000602082019050818103600083015261244181611ee0565b9050919050565b6000602082019050818103600083015261246181611f46565b9050919050565b6000602082019050818103600083015261248181611fac565b9050919050565b600060208201905081810360008301526124a181612012565b9050919050565b600060208201905081810360008301526124c181612078565b9050919050565b600060208201905081810360008301526124e1816120de565b9050919050565b6000602082019050818103600083015261250181612144565b9050919050565b60006020820190508181036000830152612521816121ea565b9050919050565b6000602082019050818103600083015261254181612290565b9050919050565b60006020820190508181036000830152612561816122f6565b9050919050565b600060208201905061257d6000830184612336565b92915050565b60006020820190506125986000830184612345565b92915050565b60008190508160005260206000209050919050565b600081519050919050565b600082825260208201905092915050565b600081905092915050565b60006125e582612763565b91506125f083612763565b9250827fffffffffffffffffffffffffffffffffffffffffffffffffffffffffffffffff0382111561262557612624612809565b5b828201905092915050565b600061263b82612763565b915061264683612763565b92508261265657612655612838565b5b828204905092915050565b600061266c82612763565b915061267783612763565b9250817fffffffffffffffffffffffffffffffffffffffffffffffffffffffffffffffff04831182151516156126b0576126af612809565b5b828202905092915050565b60006126c682612763565b91506126d183612763565b9250828210156126e4576126e3612809565b5b828203905092915050565b60006126fa82612743565b9050919050565b60008115159050919050565b6000819050919050565b60007fffffffff0000000000000000000000000000000000000000000000000000000082169050919050565b600073ffffffffffffffffffffffffffffffffffffffff82169050919050565b6000819050919050565b600060ff82169050919050565b60005b8381101561279857808201518184015260208101905061277d565b838111156127a7576000848401525b50505050565b60006127b882612763565b915060008214156127cc576127cb612809565b5b600182039050919050565b600060028204905060018216806127ef57607f821691505b6020821081141561280357612802612867565b5b50919050565b7f4e487b7100000000000000000000000000000000000000000000000000000000600052601160045260246000fd5b7f4e487b7100000000000000000000000000000000000000000000000000000000600052601260045260246000fd5b7f4e487b7100000000000000000000000000000000000000000000000000000000600052602260045260246000fd5b6000601f19601f8301169050919050565b6128b0816126ef565b81146128bb57600080fd5b50565b6128c78161270d565b81146128d257600080fd5b50565b6128de81612717565b81146128e957600080fd5b50565b6128f581612763565b811461290057600080fd5b5056fe45524332303a207472616e7366657220616d6f756e7420657863656564732062616c616e6365a2646970667358221220e3fae18e42ce62035eada1bb63fc463635e2b3717ff3bb2f78d84a4cc1f93c1964736f6c63430008000033",
  "linkReferences": {},
  "deployedLinkReferences": {}
}